:020000040800F2
:100000001010002099280008D1340008D3340008CB
:10001000D7340008DB340008DF340008000000009B
:10002000000000000000000000000000E3340008B1
:10003000E534000800000000E7340008E934000857
:10004000B3280008B3280008B3280008B328000824
:10005000B3280008B32800080F3400083D34000816
:10006000B3280008B32800086B340008B328000840
:10007000B3280008B3280008B3280008B3280008F4
:10008000B3280008B3280008B3280008B3280008E4
:10009000B3280008B3280008B32800080D4600085C
:1000A000B3280008B3280008B3280008B3280008C4
:1000B000B3280008B328000849360008B328000810
:1000C000B3280008B3280008B3280008B3280008A4
:1000D000B3280008FF3800088B370008713B000880
:1000E000B3280008B3280008B328000800F002F87D
:1000F00000F065F80AA090E8000C82448344AAF15D
:100100000107DA4501D100F05AF8AFF2090EBAE85A
:100110000F0013F0010F18BFFB1A43F0010318473B
:1001200008580000285800000A444FF0000C10F84E
:10013000013B13F0070408BF10F8014B1D1108BF65
:1001400010F8015B641E05D010F8016B641E01F805
:10015000016BF9D113F0080F1EBF10F8014BAD1C55
:100160000C1B09D16D1E58BF01F801CBFAD505E073
:1001700014F8016B01F8016B6D1EF9D59142D6D3CD
:10018000704700000023002400250026103A28BFF5
:1001900078C1FBD8520728BF30C148BF0B607047F9
:1001A000642904F05386782904F08C86732904F0BE
:1001B0003687002070471FB51FBD10B510BD04F075
:1001C00061FF1146FFF7F7FF03F00AF804F07FFF25
:1001D00003B4FFF7F2FF03BC03F036FB0CB50020BD
:1001E000019000906C48006840F480306A490860D3
:1001F00000BF6948006800F4003000900198401C7E
:100200000190009818B90198B0F5A06FF1D162483B
:10021000006800F4003010B10120009001E00020DF
:1002200000900098012843D15C48006840F010001D
:100230005A4908600846006820F003000860084634
:10024000006840F002000860534840685249486026
:100250000846406848600846406840F4806048604E
:100260000846406820F47C1048600846406840F426
:10027000E81048600846006840F08070086000BFE1
:100280004548006800F000700028F9D042484068F6
:1002900020F00300404948600846406840F00200F2
:1002A000486000BF3C48406800F00C000828F9D1C5
:1002B0000CBD10B5FFF792FF10BD10B536480068B1
:1002C00040F001003449086008464068344908405D
:1002D0003149486008460068324908402E490860A4
:1002E0000846006820F4802008600846406820F432
:1002F000FE0048604FF41F008860FFF7DAFF4FF000
:1003000000602949086010BD10B5002100200022BE
:10031000214B5B6803F00C0121B1042906D00829A8
:1003200028D107E0214B224C236027E01F4B204CB3
:10033000236023E0184B5B6803F47010164B5B6876
:1003400003F48032022303EB904022B9194B43435C
:10035000174C23600DE0104B5B6803F4003323B1AE
:10036000144B4343124C236003E0104B4343104CA7
:10037000236003E00D4B0E4C236000BF00BF064B13
:100380005B68C3F303130C4CE15C094B1B68CB4067
:10039000074C236010BD0000001002400020024006
:1003A0000000FFF8FFFFF6FE08ED00E000127A0003
:1003B0000000002000093D000400002031490143F5
:1003C000314A1160704770B5002100230F22C478B4
:1003D00004B32D4C246804F4E064C4F5E064210AFD
:1003E000C1F10403CA40447804FA03F1847814404C
:1003F00021430901254C0678A155047804F01F0516
:100400000124AC4005786D11AD0005F1E025C5F87B
:10041000004109E0047804F01F050124AC401C4DA4
:100420000678761145F8264070BD1A4A0A40024304
:10043000154B1B1F1A60704739B1134A121D126801
:100440000243114B1B1D1A6006E00F4A121D126871
:1004500082430D4B1B1D1A607047042808D14FF0D2
:10046000E021096941F004014FF0E022116107E049
:100470004FF0E021096921F004014FF0E022116101
:10048000704700000000FA050CED00E000E400E019
:1004900080E100E080FFFF1F10B50446CC48844295
:1004A00008D10121042000F02DFB0021042000F0E0
:1004B00029FB46E0C748844208D10121082000F00A
:1004C00021FB0021082000F01DFB3AE0C2488442D5
:1004D00008D10121102000F015FB0021102000F0B0
:1004E00011FB2EE0BD48844208D10121202000F0FC
:1004F00009FB0021202000F005FB22E0B8488442DF
:1005000008D10121402000F0FDFA0021402000F038
:10051000F9FA16E0B348844208D10121802000F0A6
:10052000F1FA0021802000F0EDFA0AE0AE488442A2
:1005300007D10121801500F0E5FA0021A01500F097
:10054000E1FA10BD10B50121084600F0DBFA0021E8
:10055000012000F0D7FA10BD2DE9F0410246002538
:100560000026002000230024002791F803C00CF08F
:100570000F0591F803C00CF0100CBCF1000F03D074
:1005800091F802C04CEA050591F800C0BCF1000FDB
:1005900031D0146800202BE04FF0010C0CFA00F36E
:1005A000B1F800C00CEA03069E4220D183004FF050
:1005B0000F0C0CFA03F7BC4305FA03FC4CEA0404E5
:1005C00091F803C0BCF1280F06D14FF0010C0CFAD2
:1005D00000FCC2F814C00AE091F803C0BCF1480F57
:1005E00005D14FF0010C0CFA00FCC2F810C0401C01
:1005F0000828D1D31460B1F800C0BCF1FF0F34DD7E
:10060000546800202EE000F1080C4FF0010808FAB1
:100610000CF3B1F800C00CEA03069E4221D183001E
:100620004FF00F0C0CFA03F7BC4305FA03FC4CEA3D
:10063000040491F803C0BCF1280F05D100F1080CA7
:1006400008FA0CF8C2F8148091F803C0BCF1480F06
:1006500007D100F1080C4FF0010808FA0CF8C2F8B5
:100660001080401C0828CED35460BDE8F0814FF6BE
:10067000FF710180022181700421C1707047024620
:10068000002093680B400BB1012000E00020704770
:100690000146886880B2704702460020D3680B404C
:1006A0000BB1012000E0002070470146C86880B20D
:1006B000704701617047416170470AB1016100E014
:1006C00041617047C16070474FF480320A438261D4
:1006D0008161826182698269704702460020434BD2
:1006E00018684FF68073184040EA021008433F4BE9
:1006F000186070473E49C8617047F0B50A4600234C
:1007000000240021002500F00046B6F1004F02D180
:10071000364EF16901E0354E7168C0F3034583B28E
:1007200000F44016B6F5401F08D121F070612F4E3D
:10073000766826F070662D4F7E6012E000F4801619
:10074000B6F5801F06D1032606FA05F4A14341F051
:10075000706106E0460D360103FA06F6B14341F03A
:10076000706122B1460D360103FA06F6314300F0FE
:100770000046B6F1004F02D11C4EF16101E01B4E64
:100780007160F0BD30B500228B071C0F0F2303FAF8
:1007900004F2164B08338C1053F824309343134C57
:1007A00008348D1044F8253023468C1053F824303B
:1007B0008C07240F00FA04F423430C4C08348D10EA
:1007C00044F8253030BD0A49DC310860704700002C
:1007D00000080140000C01400010014000140140DD
:1007E00000180140001C01400020014000000140B1
:1007F00000002042DF48006840F00100DD49086049
:1008000008464068DC490840DA4948600846006804
:10081000DA490840D74908600846006820F480207B
:1008200008600846406820F4FE0048604FF41F004E
:1008300088607047CF49096821F48031CD4A116042
:100840001146096821F480211160B0F5803F03D082
:10085000B0F5802F0ED106E0C649096841F4803119
:10086000C44A116007E0C349096841F4A021C14AA4
:10087000116000E000BF00BF704710B501460022C4
:10088000002300204A11012A02D1BA4C236806E055
:10089000022A02D1B74C236A01E0B64C636A01F028
:1008A0001F02012494401C400CB1012000E00020F4
:1008B00010BD38B5002000900024002500BF312075
:1008C000FFF7DBFF05460098401C00900098B0F54C
:1008D000A06F01D0002DF2D03120FFF7CEFF08B17C
:1008E000012400E00024204638BD01460020A14A32
:1008F000106820F0F80040EAC10010607047A0497D
:1009000008607047024600209A4B586820F47C101B
:1009100042EA01031843974B5860704798490866AC
:10092000704701460020934A506820F003000843B6
:10093000506070478F48406800F00C0070470146D7
:1009400000208C4A506820F0F00008435060704747
:1009500001460020874A506820F4E0600843506058
:10096000704701460020834A506820F4605040EAF6
:10097000C1005060704729B17E4A527A02437D4BD4
:100980005A7204E07B4A527A82437A4B5A72704719
:100990007B49D8310860704701460020754A50688D
:1009A00020F440400843506070470021714A2032D3
:1009B0001170704A82F82010012802D004280AD150
:1009C00004E001216B4A2032117005E00521694ADB
:1009D0002032117000E000BF00BF70476949086015
:1009E00070476449096A0143624A11627047654968
:1009F00044390860704730B50021002200240023EC
:100A00005C4D6D6805F00C0121B1042905D0082961
:100A100023D105E05C4D056022E05B4D05601FE0E1
:100A2000544D6D6805F47012524D6D6805F48034B4
:100A3000022505EB92421CB9544D554305600BE06D
:100A40004C4D6D6805F400351DB1504D55430560A2
:100A500002E04D4D5543056002E04B4D056000BF7F
:100A600000BF444D6D6805F0F0010909484D6B5C0D
:100A70000568DD4045603F4D6D6805F4E061090A99
:100A8000434D6B5C4568DD4085603A4D6D6805F40B
:100A90006051C90A3E4D6B5C4568DD40C560354D0F
:100AA0006D6805F44041890B3A4D6B5CC568B5FB38
:100AB000F3F5056130BD29B12E4A526902432D4B31
:100AC0005A6104E02B4A526982432A4B5A617047AB
:100AD00029B1284A92690243264B9A6104E0254ACB
:100AE00092698243234B9A61704729B1214AD269A6
:100AF0000243204BDA6104E01E4AD26982431D4B57
:100B0000DA61704729B11B4AD2680243194BDA6097
:100B100004E0184AD2688243164BDA60704729B164
:100B2000144A12690243134B1A6104E0114A126914
:100B30008243104B1A617047124940390860704770
:100B40000F49C86470470B49C87170470948406A2B
:100B500040F0807007494862704701460020054A0E
:100B600092680A400AB1012000E000207047014964
:100B700088727047001002400000FFF8FFFFF6FE89
:100B8000000042428004424200127A0000093D0007
:100B9000140000202400002010B50446FB488442C5
:100BA00009D101218803FFF7ADFF00214FF48040F8
:100BB000FFF7A8FF32E0F648844209D1012148043A
:100BC000FFF7ADFF00214FF40030FFF7A8FF25E04D
:100BD000F048844209D101218804FFF7A0FF0021D9
:100BE0004FF48020FFF79BFF18E0EB48844209D1C7
:100BF0000121C804FFF793FF00214FF40020FFF705
:100C00008EFF0BE0E548844208D101210805FFF77B
:100C100086FF00214FF48010FFF781FF10BD2DE902
:100C2000F04786B005460E460024A24600BFA14606
:100C30000027B08900B100BF2F462C8A4CF6FF7008
:100C40000440F08804432C82AC894EF6F310044033
:100C5000B08831890843718908430443AC81AC8A68
:100C60004FF6FF400440B0890443AC8201A8FFF76F
:100C7000C2FEC648874202D1DDF810A001E0DDF8CF
:100C80000CA0A88900F4004040B10AEBCA0000EBB8
:100C90000A1031684900B0FBF1F807E00AEBCA001E
:100CA00000EB0A1031688900B0FBF1F86420B8FB52
:100CB000F0F004012009642101FB1089A88900F4E7
:100CC000004040B1322000EBC900B0FBF1F000F071
:100CD0000700044308E0322000EB09106421B0FB58
:100CE000F1F000F00F0004432C8106B0BDE8F0875E
:100CF0004FF41651016000218180C18001810C21D7
:100D0000418100218181704710B502460020108A80
:100D10004FF2FF0318400B884C8823438C882343F1
:100D2000CC8823431843108210BD002101804180EC
:100D30008180C180704721B1828942F40052828152
:100D400004E082894DF6FF731A4082817047F0B546
:100D50000346002400260025002040F66A17B94209
:100D600000D100BF1846C1F3421401F01F0601274D
:100D700007FA06F5012C01D10C3004E0022C01D158
:100D8000103000E014301AB107682F43076002E00A
:100D90000768AF430760F0BD1AB1838A0B438382B3
:100DA00002E0838A8B4383827047028A4FF6F07396
:100DB0001A400282028A0A430282704782894FF2F5
:100DC000FF731A40828182890A438281704721B170
:100DD000828942F00202828104E082894FF6FD732B
:100DE0001A4082817047028A4FF6DF731A400282EE
:100DF000028A0A430282704721B1028A42F4804289
:100E0000028204E0028A4BF6FF731A4002827047A6
:100E1000C1F308028280704701468888C0F3080049
:100E20007047818941F0010181817047028BD2B204
:100E30000283028B42EA012202837047028B02F492
:100E40007F420283028B0A430283704721B1828A68
:100E500042F02002828204E0828A4FF6DF731A4059
:100E60008282704721B1828A42F01002828204E0BD
:100E7000828A4FF6EF731A408282704721B1828ACC
:100E800042F00802828204E0828A4FF6F7731A4029
:100E90008282704721B1828942F40042828103E05C
:100EA0008289C2F30E028281704721B1828A42F4A4
:100EB0000062828204E0828A4FF2FF731A408282CB
:100EC0007047828A4FF6FB731A408282828A0A43F5
:100ED0008282704721B1828A42F00202828204E05B
:100EE000828A4FF6FD731A408282704702460020C4
:100EF000B1F5007F00D100BF13880B400BB101207A
:100F000000E00020704701F40072B2F5007F00D1CC
:100F100000BFCA430280704770B502460024002318
:100F20000025002040F66A16B14200D100BFC1F38F
:100F3000421501F01F03012606FA03F3012D02D129
:100F40009689334006E0022D02D1168A334001E033
:100F5000968A33400C12012606FA04F416883440AF
:100F600013B10CB1012000E0002070BD10B50022CB
:100F7000002340F66A14A14200D100BF0A120124E6
:100F80009440A3B2DC43048010BD0000003801404F
:100F90000044004000480040004C00400050004029
:100FA00001460020FE4A106800F038000843106037
:100FB0007047FB49096821F00801F94A11601146A0
:100FC0000968014311607047F549096821F0100173
:100FD000F34A116011460968014311607047F148F6
:100FE000EF494860F04848607047EE48EC49486077
:100FF000ED4848607047EA48006940F08000E849E1
:1010000008617047E648006940F08000E4490861E3
:1010100070470420E249C96801F0010109B10120CB
:101020000EE0DF49C96801F0040109B1022007E0C0
:10103000DB49C96801F0100109B1032000E0042078
:10104000704700B502460423FFF7E3FF034603E0C1
:10105000FFF7DFFF0346521E012B01D1002AF7D113
:1010600002B90523184600BD30B5044604254FF4E7
:101070003020FFF7E6FF0546042D17D1C848006968
:1010800040F00200C649086108464461006940F02A
:10109000400008614FF43020FFF7D3FF0546C048F9
:1010A000006941F6FD710840BD490861284630BD20
:1010B00010B504244FF43020FFF7C3FF0446042C7E
:1010C00016D1B748006940F00400B54908610846E8
:1010D000006940F0400008614FF43020FFF7B1FF95
:1010E0000446AF48006941F6FB710840AC4908610D
:1010F000204610BD00B502460423FFF78AFF0346D1
:1011000003E0FFF786FF0346521E012B01D1002AA0
:10111000F7D102B90523184600BD10B504244FF4D9
:101120003020FFF7E7FF0446042C16D19C480069E5
:1011300040F004009A4908610846006940F0400008
:1011400008614FF43020FFF7D5FF0446944800694A
:1011500041F6FB71084092490861204610BD00200D
:101160008F49C96901F0020109B1012000E00020A6
:10117000704730B5A5250424FFF7F1FF00B1002525
:101180004FF43020FFF75DFF0446042C3AD1854828
:1011900083498860844888600846006940F02000E0
:1011A00008610846006940F0400008614FF43020B3
:1011B000FFF747FF0446042C1BD17948006941F62C
:1011C000DF710840764908610846006940F0100068
:1011D000086176480580E002FFF733FF0446052CDE
:1011E00010D06F48006941F6EF7108406C49086102
:1011F00008E0052C06D06A48006941F6EF71084006
:1012000067490861204630BD78B506460C4604257E
:1012100000200090E802FFF714FF0546042D24D1BA
:101220005F48006940F001005D4908613480E802D0
:10123000FFF707FF0546042D10D1B01C0090200CCD
:1012400000990880E802FFF7FCFE05465448006953
:1012500041F6FE7108405249086106E050480069B5
:1012600041F6FE7108404E490861284678BD70B5C8
:1012700004460D460426F002FFF7E3FE0646042E60
:1012800011D14748006940F00100454908612580B7
:10129000F002FFF7D6FE06464148006941F6FE71AE
:1012A00008403F490861304670BD70B505460E469E
:1012B0000424E002FFF7C5FE0446042C17D1394888
:1012C00037498860384888600846006940F0100057
:1012D00008612E80E002FFF7B4FE0446052C06D01C
:1012E0002F48006941F6EF7108402D4908612046FA
:1012F00070BD2DE9F04304464FF6FF763746B04601
:10130000B1460425E443E6B2C4F30727C4F3074813
:101310004FEA1469E802FFF794FE0546042D49D10F
:1013200020481F498860204888600846006940F0CE
:1013300010000861FF2E06D01C4808300680E80225
:10134000FFF77FFE0546042D08D1FF2F06D0174872
:101350000A300780E802FFF774FE0546042D0AD123
:10136000B8F1FF0F07D011480C30A0F80080E80258
:10137000FFF767FE0546042D0AD1B9F1FF0F07D02C
:101380000A480E30A0F80090E802FFF75AFE054622
:10139000052D0FD00248006941F6EF71084007E0C3
:1013A0000020024023016745AB89EFCD00F8FF1F05
:1013B000664908612846BDE8F08330B50546042437
:1013C0004FF43020FFF73DFE0446042C41D1604825
:1013D0005E4988605F4888600846006940F02000E8
:1013E00008610846006940F0400008614FF4302071
:1013F000FFF727FE0446042C22D15448006941F629
:10140000DF710840514908610846006940F010004A
:1014100008611DB100205049088002E0A5204E4916
:1014200008804FF43020FFF70CFE0446052C10D046
:101430004648006941F6EF7108404449086108E0F8
:10144000052C06D04148006941F6DF7108403F494C
:101450000861204630BDF0B505460E461746042407
:101460003B483A4988603B488860E002FFF7E9FD65
:101470000446042C19D13548006940F01000334966
:10148000086147F0F800304328433349891C08803D
:10149000E002FFF7D6FD0446052C06D02B48006974
:1014A00041F6EF710840294908612046F0BD274800
:1014B000C069800870472548006A704700202349AA
:1014C000096801F0200109B1012000E00020704707
:1014D00029B11E4A126902431C4B1A6104E01B4ADF
:1014E00012698243194B1A61704701460020012995
:1014F00008D1164AD26902F001020AB1012008E0BF
:10150000002006E0114AD2680A400AB1012000E03A
:10151000002070470D49C860704704200B49C96816
:1015200001F0010109B101200EE00849C96801F08C
:10153000040109B1022007E00449C96801F0100163
:1015400009B1032000E004207047000000200240A1
:1015500023016745AB89EFCD00F8FF1F10B50446A6
:10156000F748844209D101214805FFF7D8FA002144
:101570004FF40010FFF7D3FA08E001218805FFF7C8
:10158000CEFA00214FF48000FFF7C9FA10BD2DE913
:10159000F04385B004460D460026B1460427DFF827
:1015A000A483A6884FF6C07006406846FFF723FA6A
:1015B000DDF80880E448B8FBF0F01FFA80F946EA4D
:1015C0000906A68020884FF6FE710840208000267C
:1015D000DE49286888420CD828684000B8FBF0F043
:1015E00087B2042F00DA04273E4309F1010020846A
:1015F00027E0E8884BF6FF71884206D1286800EBA7
:101600004000B8FBF0F087B209E0286800EBC001A9
:1016100001EB0010B8FBF0F087B247F48047C7F346
:101620000B0008B947F0010747F4004006434FF4A8
:10163000967009FB00F04FF47A7190FBF1F0401CBA
:101640002084A683208840F00100208026884FF661
:10165000F5300640A8886989084306432680A88992
:1016600029890843208105B0BDE8F08341F2883123
:101670000160002181804BF6FF71C1800021018152
:1016800041814FF480418181704721B1028842F04D
:101690000102028004E002884FF6FE731A400280C5
:1016A000704721B1828842F40062828004E082881F
:1016B0004FF2FF731A408280704721B1828842F452
:1016C0008052828004E082884EF6FF731A40828046
:1016D000704721B1028842F48072028004E00288DF
:1016E0004FF6FF631A400280704721B1028842F42E
:1016F0000072028004E002884FF6FF531A40028015
:10170000704721B1028842F48062028004E00288BE
:101710004FF6FF331A40028070470A460021818944
:101720004FF60173194002F0FE031943818170479F
:1017300021B1828942F00102828104E082894FF660
:10174000FE731A408281704721B1028842F0400244
:10175000028004E002884FF6BF731A40028070478F
:101760001AB183880B43838002E083888B43838094
:101770007047018270470146088AC0B2704712B1B3
:1017800041F0010102E04FF6FE73194001827047FB
:1017900008B502460020009000920098084400908E
:1017A0000098008808BD21B1028842F400420280FE
:1017B00003E00288C2F30E0202807047B1F5006FA9
:1017C00004D1028842F40062028004E002884FF2F1
:1017D000FF731A4002807047B1F5005F04D10288A0
:1017E00042F40052028004E002884DF6FF731A4072
:1017F0000280704721B1028842F48052028004E0E6
:1018000002884EF6FF731A4002807047B1F5006FF0
:1018100004D1028842F40062028004E002884FF2A0
:10182000FF731A400280704721B1028842F0200203
:10183000028004E002884FF6DF731A40028070478E
:101840000146088B0012704721B1028842F0100255
:10185000028004E002884FF6EF731A40028070475E
:1018600021B9028842F08002028004E002884FF62B
:101870007F731A4002807047B1F5804F05D0828B8C
:101880004BF6FF731A40828303E0828B42F480425E
:101890008283704770B50246002400250023002093
:1018A000958A138B1B0445EA030626F07F4404EA5D
:1018B00001068E4201D1012000E0002070BD10B56C
:1018C00001460020002300228B8A0A8B120443EA7F
:1018D000020424F07F4010BD0CB502460020002316
:1018E0000193009300920B0F019321F07F41019B24
:1018F0001BB1009B1433009303E0090C009B1833C9
:101900000093009B1B680B400BB1012000E00020FE
:101910000CBD002221F07F42D3438382704730B553
:10192000024600200023948801F0E06504EA154394
:1019300021F07F41948A0C4054B14BB1012008E062
:101940000054004000127A0040420F00A0860100BF
:10195000002030BD002221F07F42D34383827047B4
:10196000002044490860091D0860091D0860091D20
:10197000086041483F4914310860704700213D49E3
:101980008279002A3AD00A46126803689A430B46C5
:101990001A600A1D126803689A430B1D1A600279C7
:1019A00011440A6803681A430A60324A083212680E
:1019B00003689A432F4B08331A601A1D1268036894
:1019C0009A432C4B0C331A604279102A0ED11A1FFD
:1019D000126803681A43274B08331A601A1D1268ED
:1019E00003681A43234B0C331A600DE021494279F6
:1019F00011440A6803681A430A6005E00279114439
:101A00000A6803689A430A60704700210160017107
:101A10000C2141710021817170471649103109680C
:101A20000143144A10321160704701460020114AE8
:101A3000143212680A400AB1012000E00020704709
:101A40000C49143108607047014600200022094B00
:101A50001B6803EA0102074B14331B680B4013B1E8
:101A60000AB1012000E000207047024914310860EB
:101A70007047000000040140FFFF0F0010B504464E
:101A8000FE48844208D10121C014FFF73BF8002131
:101A9000E014FFF737F8C4E0B4F1804F08D101211A
:101AA0000846FFF73CF800210120FFF738F8B8E0BE
:101AB000F348844208D101210220FFF730F80021C9
:101AC0000220FFF72CF8ACE0EE48844208D1012157
:101AD0000420FFF724F800210420FFF720F8A0E0FD
:101AE000E948844208D101210820FFF718F80021B5
:101AF0000820FFF714F894E0E448844208D101215B
:101B00001020FFF70CF800211020FFF708F888E0FC
:101B1000DF48844208D101212020FFF700F800218E
:101B20002020FEF7FCFF7CE0DA48844208D1012146
:101B30004014FEF7E7FF00216014FEF7E3FF70E0BA
:101B4000D548844209D10121C804FEF7DBFF0021FA
:101B50004FF40020FEF7D6FF63E0D048844209D15D
:101B600001210805FEF7CEFF00214FF48010FEF79B
:101B7000C9FF56E0CA48844209D101214805FEF751
:101B8000C1FF00214FF40010FEF7BCFF49E0C5483B
:101B9000844208D101214020FEF7C1FF00214020EE
:101BA000FEF7BDFF3DE0C048844208D101218020FE
:101BB000FEF7B5FF00218020FEF7B1FF31E0BB4802
:101BC000844208D101218015FEF7A9FF0021A0154C
:101BD000FEF7A5FF25E0B648844209D1012108049B
:101BE000FEF790FF00214FF48030FEF78BFF18E0E6
:101BF000B048844209D101214804FEF783FF002147
:101C00004FF40030FEF77EFF0BE0AB48844208D172
:101C100001218804FEF776FF00214FF48020FEF7B3
:101C200071FF10BD00220288944B98420ED0994B50
:101C300098420BD0B0F1804F08D0914B984205D01C
:101C4000904B984202D0904B984204D14FF68F733C
:101C50001A404B881A438D4B984207D08C4B9842C0
:101C600004D04FF6FF431A40CB881A4302808B887A
:101C700083850B880385814B98420BD0854B984216
:101C800008D08B4B984205D08A4B984202D08A4BA1
:101C9000984201D10B7A038601238382704770B585
:101CA000002400220023058C4FF6FE763540058483
:101CB000028C8388048B4FF68F752C40B51E2C4008
:101CC0000D882C43751E2A400D892A434D882A43CE
:101CD0006A4DA8420BD06F4DA84208D0744DA8425F
:101CE00005D0744DA84202D0734DA84213D14FF6CF
:101CF000F7752A404D892A434FF6FB752A408D8897
:101D00002A434FF6FF652B404FF6FF552B408D8938
:101D10002B43CD892B4383800483CD888586028421
:101D200070BD70B5002400220023058C4FF6EF76BD
:101D300035400584028C8388048B48F6FF752C405F
:101D40004FF6FF452C400D884FF6FF7606EA052535
:101D50002C434FF6DF752A400D8906EA05152A4304
:101D60004D8806EA05152A43444DA84202D0494D44
:101D7000A8421DD14FF67F752A404D894FF6FF7658
:101D800006EA05152A434FF6BF752A408D8806EAF4
:101D900005152A434FF6FF352B404FF2FF752B40B8
:101DA0008D8906EA85052B43CD8906EA85052B43F7
:101DB00083800483CD880587028470BD70B50024BC
:101DC00000220023058C4FF6FF6635400584028C07
:101DD0008388848B4FF68F752C404FF6FC752C4012
:101DE0000D882C434FF6FF552A400D894FF6FF769C
:101DF00006EA05252A434D8806EA05252A431F4D94
:101E0000A84202D0234DA8421DD14FF2FF752A40AF
:101E10004D894FF6FF7606EA05252A434FF6FF3532
:101E20002A408D8806EA05252A434EF6FF752B4089
:101E30004DF6FF752B408D8906EA05152B43CD899C
:101E400006EA05152B4383808483CD888587028429
:101E500070BD70B5002200230024058C4EF6FF767D
:101E600035400584038C8488828B48F6FF752A40B0
:101E70004FF6FF452A400D8820E00000002C01406D
:101E80000004004000080040000C0040001000402A
:101E90000014004000340140004C0140005001405B
:101EA0000054014000180040001C00400020004089
:101EB0000040014000440140004801404FF6FF76D9
:101EC00006EA05252A434DF6FF752B400D8906EAE3
:101ED00005352B434D8806EA05352B43FA4DA842BC
:101EE00002D0FA4DA84208D14BF6FF752C408D89DF
:101EF0004FF6FF7606EA85152C4384808283CD88D1
:101F0000A0F84050038470BD828B4FF2FF331A401B
:101F10008283828B4FF6FF7303EA01231A43828385
:101F20007047F0B50C461546002200210026078CAC
:101F30004EF6FF7C07EA0C070784828B018C4FF674
:101F4000FF7707EA043640F6FF473A404FF6FF773F
:101F500007EA05273A434FF6FF7707EA03373A4384
:101F6000D94FB8420ED0D94FB8420BD0B0F1804F04
:101F700008D0D74FB84205D0D64FB84202D0D64F7E
:101F8000B84206D14DF6FF77394046F480573943C1
:101F900005E047F6FF57394044F4805739438283C0
:101FA0000184F0BD828B4FF6F3731A408283828BDB
:101FB0000A4382837047F0B50C4615460022002183
:101FC0000026078C4FF6FF6C07EA0C070784828B0C
:101FD000018C4FF6FF7707EA04264FF60C773A405C
:101FE0004FF6FF7707EA03172F433A43B64FB8423D
:101FF0000ED0B64FB8420BD0B0F1804F08D0B44FDE
:10200000B84205D0B34FB84202D0B34FB84206D160
:102010004FF6FF57394046F48077394305E04FF2D9
:10202000FF57394044F48077394382830184F0BDFF
:10203000028B4FF2FF331A400283028B4FF6FF737D
:1020400003EA01231A4302837047F0B50C46154694
:10205000002200210026078C4FF6EF7C07EA0C07D0
:102060000784028B018C4FF6FF7707EA041640F6CF
:10207000FF473A404FF6FF7707EA03373A434FF6F8
:10208000FF7707EA05273A438F4FB8420ED08F4FAC
:10209000B8420BD0B0F1804F08D08D4FB84205D078
:1020A0008C4FB84202D08C4FB84206D14FF6DF7742
:1020B000394046F01007394305E04FF65F77394065
:1020C00044F01007394302830184F0BD028B4FF6C0
:1020D000F3731A400283028B0A4302837047F0B500
:1020E0000C46154600220021068C4FF6FE773E4036
:1020F0000684028B018C4FF60C7632407E1C06EA79
:1021000003162E433243704EB0420ED06F4EB04293
:102110000BD0B0F1804F08D06D4EB04205D06D4E5F
:10212000B04202D06C4EB04206D14FF6FD7631403F
:1021300044F00106314305E04FF6F576314044F0B6
:102140000106314302830184F0BD70B505460C469B
:102150005D4885420ED05D4885420BD0B5F1804F79
:1021600008D05B48854205D05A48854202D05A487B
:10217000854200D100E000BF208850B92389A288A1
:1021800061882846FFF7ABFFE1882846FFF79EFFEE
:1021900025E0208804280AD12389A288618828465E
:1021A000FFF753FFE1882846FFF742FF17E020883A
:1021B00008280AD12389A28861882846FFF7FBFEF8
:1021C000E1882846FFF7EEFE09E02389A2886188AE
:1021D0002846FFF7A6FEE1882846FFF795FE70BD6A
:1021E0002DE9F04105460C4600260127608808B914
:1021F000022600E00026A088012801D1022700E085
:1022000001272088A0B92389A28861882846FFF782
:1022100066FFE1882846FFF759FF23893A46314691
:102220002846FFF712FFE1882846FFF701FF13E079
:102230002389A28861882846FFF707FFE18828469E
:10224000FFF7F6FE23893A4631462846FFF747FF57
:10225000E1882846FFF73AFFBDE8F0810A884B88FD
:102260001A438B881A43CB881A430B891A434B892C
:102270001A438B891A43A0F8442070474FF6FF7128
:10228000818000210180C18041800172704700215E
:10229000018041808180C180018141818181C18132
:1022A0007047002101804180012181800021C1808F
:1022B000018170470021018041808180C1800181BE
:1022C0004181818170470000002C014000340140B1
:1022D0000004004000080040000C004021B10288CA
:1022E00042F00102028004E002884FF6FE731A40B9
:1022F0000280704731B1B0F8442042F40042A0F8A7
:10230000442005E0B0F84420C2F30E02A0F84420B7
:1023100070471AB183890B43838102E083898B4321
:10232000838170478182704741EA0203A0F84830F8
:1023300070471AB183890B43838102E083898B4301
:102340008381704701894FF6F8721140018170470F
:102350000A46002101894FF68F731940114301810C
:10236000704730B504460D4629462046FFF7F0FF7A
:10237000208940F00700208130BD2DE9F04104465E
:102380000D4616461F46602D06D13B4601223146BA
:102390002046FFF75AFE05E03B4601223146204623
:1023A000FFF79DFE29462046FFF7D2FF208940F027
:1023B00007002081BDE8F08130B50C46002101897D
:1023C000C9B24FF6FF7505EA032515432543294396
:1023D000018130BD2DE9F04105460E46174698466D
:1023E000002443463A4631462846FFF7E5FF2C894C
:1023F0004FF6F870044044F007044FF68F70044025
:1024000044F070042C81BDE8F081F0B504460D461F
:1024100016461F463B46324629462046FFF7CCFF6C
:10242000208940F480402081F0BD01858282704780
:102430000A46002101884FF68F731940114301802D
:102440007047F0B50C4615461E46002100220023B9
:102450000189028B038C4FF6F877394021434FF600
:10246000FC473A4040F201173A434FF6DD773B40D4
:102470004FF6FF7707EA06172F433B43018102839C
:102480000384F0BD0A460021018B4FF68F7319407B
:102490001143018370470A460021018B48F6FF7300
:1024A00019404FF6FF7303EA022319430183704773
:1024B0000A460021818B4FF68F73194011438183A7
:1024C00070470A460021818B48F6FF7319404FF68A
:1024D000FF7303EA022319438183704721B1028805
:1024E00042F08002028004E002884FF67F731A40B7
:1024F0000280704721B1828842F00402828004E0A9
:1025000082884FF6FB731A408280704721B182881F
:1025100042F00802828004E082884FF6F7731A4086
:102520008280704721B1828842F00102828004E0FB
:1025300082884FF6FE731A40828070470A46002157
:10254000018B4FF6F77319401143018370470A4618
:102550000021018B4FF2FF7319404FF6FF7303EA1E
:1025600002231943018370470A460021818B4FF6ED
:10257000F77319401143818370470A460021818B0C
:102580004FF2FF7319404FF6FF7303EA022319431A
:10259000818370470A460021018B4FF6FB73194077
:1025A0001143018370470A460021018B4FF6FF3328
:1025B00019404FF6FF7303EA022319430183704762
:1025C0000A460021818B4FF6FB731940114381832A
:1025D00070470A460021818B4FF6FF3319404FF6B2
:1025E000FF7303EA02231943818370470A460021DF
:1025F000018B4FF67F7319401143018370470A46E0
:102600000021018BC1F30E014FF6FF7303EA022391
:102610001943018370470A460021818B4FF67F736F
:1026200019401143818370470A460021818BC1F311
:102630000E014FF6FF7303EA0223194381837047AB
:102640000A460021018C4FF6FD73194011430184A5
:1026500070470A460021018C4FF6F7731940114369
:10266000018470470A460021018C4FF6DF73194040
:102670004FF6FF7303EA02131943018470470A46B9
:102680000021018C4FF67F7319404FF6FF7303EA68
:1026900002131943018470470A460021018C4FF64A
:1026A000FF5319404FF6FF7303EA022319430184D5
:1026B00070470A460021018C4FF2FF7319404FF614
:1026C000FF7303EA02231943018470470A4600217D
:1026D000018C4DF6FF7319404FF6FF7303EA023386
:1026E00019430184704730B5002301248C40A3B204
:1026F000048C9C430484048C02FA01F5ADB22C4393
:10270000048430BD30B5002304248C40A3B2048C73
:102710009C430484048C02FA01F5ADB22C4304847A
:1027200030BD70B50346002000241846183001253E
:102730008D40ACB21D8CA5431D8409B1082909D177
:1027400000EB6100056825F070050560056815431C
:1027500005600EE00D1FC5F34E052844056825F4FD
:10276000E045056005684FF6FF7606EA0226354328
:10277000056070BD21B1028842F00202028004E0CF
:1027800002884FF6FD731A400280704721B102881B
:1027900042F00402028004E002884FF6FB731A4004
:1027A0000280704721B1828842F08002828004E07A
:1027B00082884FF67F731A408280704702884FF6F6
:1027C000F7731A40028002880A43028070478288A9
:1027D0004FF68F731A40828082880A438280704746
:1027E00002894FF6F8731A40028102890A43028176
:1027F000704702894FF67F731A40028102890A43AB
:102800000281704781847047818570478186704757
:102810000187704781877047A0F840107047028891
:102820004FF6FF431A40028002880A430280704735
:102830000146888E70470146088F70470146888F91
:1028400070470146B1F8400070470146888C7047D8
:102850000146088D704702460020138A0B400BB1D9
:10286000012000E000207047CA430282704730B563
:102870000246002000230024158A05EA01039589F9
:1028800005EA010413B10CB1012000E0002030BDC5
:10289000CA43028270470000094880470948004740
:1028A000FEE7FEE7FEE7FEE7FEE7FEE7FEE7FEE700
:1028B000FEE7FEE704480549054A064B704700005D
:1028C000BB020008ED000008100A002010100020D4
:1028D000100C0020100C002010B50FE04FF4C87051
:1028E00000F041FE01F098FA0223F7A203211E2016
:1028F00001F0ADFA4FF4967000F035FEF54802F0A5
:1029000047F90028EAD101F087FA0223F2A2032155
:102910001E2001F09CFA4FF4FA7000F024FE01F042
:1029200094FB10BD10B50446182C6FD2DFE804F0FC
:102930000C131A21282F363D444B525960676F768D
:102940007D848B9299A0A7AE0223E6A203212420C6
:1029500001F07DFAA8E00223E4A20321242001F083
:1029600076FAA1E00223E3A20321242001F06FFA0A
:102970009AE00223E1A20321242001F068FA93E007
:102980000223E0A20321242001F061FA8CE002235B
:10299000DEA20321242001F05AFA85E00223DDA201
:1029A0000321242001F053FA7EE00223DBA203215D
:1029B000242001F04CFA77E00223DAA2032124203C
:1029C00001F045FA70E00223D8A20321242001F08F
:1029D0003EFA69E00223D7A20321242001F037FA4E
:1029E00062E00223D6A20321242001F030FA5BE04A
:1029F0000223D6A20321242001F029FA54E0022365
:102A0000D5A20321242001F022FA4DE045E0022363
:102A1000D4A20321242001F01AFA45E00223D4A213
:102A20000321242001F013FA3EE00223D3A2032164
:102A3000242001F00CFA37E00223D3A20321242042
:102A400001F005FA30E00223D2A20321242001F094
:102A5000FEF929E00223D2A20321242001F0F7F994
:102A600022E00223D1A20321242001F0F0F91BE08F
:102A70000223D1A20321242001F0E9F914E002236A
:102A8000D0A20321242001F0E2F90DE00223D0A21C
:102A90000321242001F0DBF906E00223CFA2032169
:102AA000192001F0D4F900BF00BF10BD70B500259A
:102AB000002600E0B6E2CC4800880028FAD0B0E258
:102AC000052E71D2DFE806F00388F6E6E500681C03
:102AD000C5B201F0A1F9642000F045FD0223C3A2B4
:102AE0000321172001F0B3F900E09BE2BE48008803
:102AF0000028FAD00AE000E094E2BB4800880028F1
:102B0000FAD0BD480078012800D100E0F3E700BF0B
:102B10000020B949087001F0F0FB044600E081E2B2
:102B2000B14800880028FAD001F076F9642000F05E
:102B30001AFD00E076E2AC4800880028FAD0002CAC
:102B40003AD10223ADA20321162001F080F94FF4FF
:102B5000FA7000F008FD00E064E2A3480088002855
:102B6000FAD0012001F0A6FB0446F4B900E059E2D6
:102B70009D4800880028FAD00223A3A20321162032
:102B800001F065F900E04DE2974800880028FAD08E
:102B900001264FF4C87000F0E6FC00E042E29248E3
:102BA00000880028FAD016E036E2022399A2032119
:102BB000192001F04CF90EE0642000F0D4FC02234F
:102BC00098A20321232001F042F900E02AE286487E
:102BD00000880028FAD01FE2681CC5B201F01CF979
:102BE000022392A20321122001F031F900E019E240
:102BF0007D4800880028FAD00AE000E012E27A4816
:102C000000880028FAD07C480078012800D100E034
:102C1000F3E700BF00207849087001F06EFB04461E
:102C2000B4BBC82000F09FFC01F0F6F8022383A299
:102C30000321162001F00BF900E0F3E16A48008857
:102C40000028FAD04FF4967000F08DFC01F0E4F803
:102C5000022001F02FFB0446F4B900E0E2E16248F3
:102C600000880028FAD0022377A20321162001F061
:102C7000EEF8002502217748FDF71BFD4FF47A702E
:102C800000F071FC02217348FDF715FD022610E0EB
:102C900009E062E12AE10DE002235EA2032119208E
:102CA00001F0D5F805E002235EA20321232001F004
:102CB000CEF8B1E101F0B0F8022367A203210D20A4
:102CC00001F0C5F8D1E0000041533630385F4F467F
:102CD00046000000F804002041533630385F4F4E64
:102CE000000000004E554D203A2030004E554D203A
:102CF0003A2031004E554D203A2032004E554D209D
:102D00003A2033004E554D203A2034004E554D2088
:102D10003A2035004E554D203A2036004E554D2074
:102D20003A2037004E554D203A2038004E554D2060
:102D30003A2039004E554D203A2031300000000035
:102D40004E554D203A203131000000004E554D20A7
:102D50003A203132000000004E554D203A203133E8
:102D6000000000004E554D203A2031340000000094
:102D70004E554D203A203135000000004E554D2073
:102D80003A203136000000004E554D203A203137B0
:102D9000000000004E554D203A2031380000000060
:102DA0004E554D203A203139000000004E554D203F
:102DB0003A203230000000004E554D203A2032318A
:102DC000000000004E554D203A2032320000000035
:102DD0004E554D203A203233000000004944203A3D
:102DE0002046554C4C0000002E00002050757420E9
:102DF00046696E6765720000FC04002046696E67D4
:102E0000657247657420310046696E676572204FB0
:102E10006B2D310046696E676572204552524F52E4
:102E2000000000004E4F54204745540046696E672D
:102E3000657220416761696E0000000046696E6737
:102E4000657247657420320046696E676572204F6F
:102E50004B2D3200000C014046696E6765722043BD
:102E60006F6D706572000000DCE0F8480088002893
:102E7000FAD04FF4FA7000F076FB00F0CDFF01F0CD
:102E8000EEFB04468CB90223F1A203211E2000F0C0
:102E9000DEFF00E0C6E0ED4800880028FAD04FF4DD
:102EA000FA7000F060FB03261BE00223EBA2194638
:102EB0000A2000F0CCFF00E0B4E0E44800880028DD
:102EC000FAD0C82000F04FFB00F0A6FF0223E7A2D3
:102ED00004210A2000F0BBFF642000F044FB002521
:102EE00000264FF47A7000F03EFB95E000F094FF6E
:102EF0000223E2A20321192000F0A9FF00E091E0E3
:102F0000D24800880028FAD04FF4FA7000F02BFB6A
:102F100000F082FF01F008FC044694B900F07CFF49
:102F20000223D9A20321112000F091FF642000F0B8
:102F30001AFB00E076E0C54800880028FAD0042695
:102F400006E000260223D4A203210F2000F07FFF19
:102F50004FF47A7000F007FB5EE000F05DFFD248AE
:102F600001F0DFFDD0480088D0490880C82000F07B
:102F7000FAFA00F051FF4FF4967000F0F4FACB48E3
:102F80000188022001F0EDFB0446B4BB0223C8A275
:102F90000321082000F05BFF4FF4967000F0E3FA85
:102FA00000E03FE0A94800880028FAD000F034FF94
:102FB000BD4801F0B6FDBC480088BC490880084601
:102FC0000088FFF7AFFC4FF47A7000F0CCFA0020D5
:102FD000BB490880B5480088401CB44908800846B1
:102FE0000188B84800F056FD0120B749088000204C
:102FF00096490880B549088070BDFFE700E011E000
:10300000924800880028FAD000260223B0A20321AB
:103010000A2000F01CFF00BF00BF4FF4FA7000F060
:10302000A2FA4DE500F0F8FE00BFE5E738B5002054
:10303000AB49088000F0F0FE0223AAA203210F2072
:1030400000F005FF00E09AE0AA4800880028FAD0C6
:103050000AE000E093E0A74800880028FAD0A648DC
:103060000078012800D100E0F3E700BF0020A2496A
:10307000087001F042F9044600E080E09D480088B5
:103080000028FAD0002C73D100F0C6FE00E076E0F4
:10309000984800880028FAD04FF4967000F063FA40
:1030A000022396A20321172000F0D1FE00E066E083
:1030B000904800880028FAD0012001F0FBF804466F
:1030C000002C4ED100E05AE08A4800880028FAD04F
:1030D0006B464FF496720021012001F0A3F80446DC
:1030E0008CBB00F099FE022387A20321172000F079
:1030F000AEFE00E043E07F4800880028FAD04FF49D
:10310000FA7000F030FA00E039E07A4800880028D0
:10311000FAD000F081FE02237EA20321232000F0DA
:1031200096FE01206E49088000F08FFF7B480088E2
:10313000012801D101F0F9FD00E020E06D48008890
:103140000028FAD01AE0FFE7022375A203210F201E
:1031500000F07DFE00E012E0664800880028FAD00A
:103160000CE0022372A20321142000F070FE01E0A3
:103170000BE004E05F4800880028FAD000BF002080
:103180005C49088000F048FE38BD00BFFCE710B580
:1031900001F04DFB044600204C490880D4B900F0F2
:1031A0003BFE022365A203211A2000F050FE4FF4DB
:1031B000FA7000F0D8F9C92463480088401C6249BD
:1031C00008800120404908800020204908803F49AC
:1031D000088010BD4FF4FA7000F0C5F900BFF8E7A1
:1031E000802400F0FFF901F049FD00F07FF900F0C4
:1031F00005FD00F087FD4FF4165000F034FB4FF44E
:10320000614000F067FA4FF4165000F05BFC01F0EB
:10321000C5F900F0B9FB17214EF65F2001F044FD1F
:1032200000F0FAFEFF2000F0DAFDC82000F09BF964
:10323000002000F0D4FD00F0EFFDFFF74DFB322041
:1032400000F091F900F0E8FDE0E000002E00002021
:103250004D617463682D4F4B0000000046696E6736
:103260006572204D61746368204E4F004261636B4C
:1032700020546F20537465702031000043726561E3
:1032800074204D6F6465000043726561745375630B
:103290006365737300000000437265617420556EAE
:1032A0007363636573730000280000203A000020F8
:1032B0004164642046696E67676572204F6B000049
:1032C0003C00002000F001082C000020300000200D
:1032D0004164642046696E67676572204E4F000046
:1032E0004400002050726573732046696E676572F2
:1032F0000000000032000020FC04002046696E67D8
:10330000657220476574000046696E642046696EE8
:1033100067657200504153532100000046000020B1
:10332000556E6B6E6F772046696E676572000000A0
:10333000437265617465204661696C0044656C6523
:103340007465204F4B0000003E0000204FF4967043
:1033500000F009F905E0022350A20321172000F034
:1033600076FD5148008818B9504800880028F2D0EE
:1033700004B9322409E000F04FFD642000F0F3F8B6
:10338000FFF754FE0020484908804748008801287C
:1033900003D1464800880028EDD02FE000F03CFD26
:1033A000642000F0E0F8022341A203210F2000F086
:1033B0004EFD4FF4967000F0D6F80020404908808A
:1033C00000F02AFD07E00120374908800020374936
:1033D0000880FFF72BFE3B48008818B93A48008860
:1033E0000028F0D001203649088000202E490880AE
:1033F00001202E490880FFF759FB00BF2B480088A9
:10340000012803D1284800880028C7D09EE710B5BE
:103410000120FEF719FB80B10120FEF726FB0020FA
:10342000214908800A2000F09EF801212748FDF775
:1034300026F910B901201C49088010BD10B50220E2
:10344000FEF702FB80B10020184908800220FEF739
:103450000CFB0A2000F087F802211C48FDF70FF949
:1034600010B901201149088010BD10B51020FEF7D9
:10347000EBFA90B11020FEF7F8FA0A2000F073F88A
:1034800010211248FDF7FBF838B9002007490880E1
:103490000549088001200C49088010BD4D61696E06
:1034A00020204D656E750000320000202E000020A7
:1034B000766572696669636174696F6E0000000009
:1034C0004600002044000020480000200008014081
:1034D000704700BFFEE700BFFEE700BFFEE700BF8A
:1034E000FEE77047704770477047000010B56FF0F7
:1034F0000400FCF7B2FF344800683449B0FBF1F037
:10350000334908700846007800EB4001C1EBC01059
:103510004FF6FF7101EAC0002E49088010BD014638
:103520002B4A12784A434FF0E0235A6100229A61F5
:103530001A46126942F001021A6100BF4FF0E02200
:10354000106900F001021AB100F48032002AF5D0AF
:103550004FF0E022126922F001024FF0E0231A61DD
:1035600000229A61704701461A4A12884A434FF076
:10357000E0235A6100229A611A46126942F0010260
:103580001A6100BF4FF0E022106900F001021AB189
:1035900000F48032002AF5D04FF0E022126922F0C8
:1035A00001024FF0E0231A6100229A61704730B5A2
:1035B0000446002505E04FF47A70FFF7D4FF681C3D
:1035C000C5B2A542F7D330BD0000002000127A003A
:1035D0004A0000204C00002030BF704772B6704790
:1035E00062B6704710B5FDF705F94FF48030FDF76E
:1035F00021F9FDF75EF90446012C24D14FF4E011C6
:103600000004FDF77FF90020FDF799F9A002FDF70E
:103610009FF90020FDF7A5F90220FDF7C1FC10205D
:10362000FDF7D2FC0120FDF779F900BF3920FDF745
:1036300024F90028FAD00220FDF773F900BFFDF746
:1036400079F90828FBD110BD10B501211F48FFF7FB
:103650000EF968B11E48008840F400401C490880FB
:1036600001211A48FFF714F900211848FEF736FE29
:1036700010BD7FB505460C4601210420FDF735FA43
:10368000ADF80450ADF800400020ADF80600ADF8EC
:10369000020069460D48FEF7C5FA012211460B48A3
:1036A000FEF737FE01210948FEF718FE1E208DF8AF
:1036B0000C0000208DF80D0002208DF80E00012076
:1036C0008DF80F0003A8FCF77EFE7FBD00080040C8
:1036D0004E00002010B586B0044601210420FDF7FD
:1036E000F7F901214804FDF700FA5048FDF754FAB4
:1036F0000420ADF8100003208DF8120018208DF87A
:10370000130004A94A48FCF727FF0820ADF8100071
:1037100048208DF8130004A94648FCF71DFF0094CB
:103720000020ADF80400ADF80600ADF80800ADF8D3
:103730000C000C20ADF80A0069463C48FDF76FFA12
:1037400001213A48FDF7F7FA012240F225513748A6
:10375000FDF7FDFA26208DF8140001208DF81500E4
:103760008DF816008DF8170005A8FCF72CFE41F621
:103770001F416320FFF77DFF00202F4908800021B3
:103780002E48FEF7ABFD06B010BD10B540F2255136
:103790002648FDF7C1FB00B32448FDF73DFBC4B24A
:1037A0002548008800F40040B8B923480088B0F5E7
:1037B000C87F13DA00212148FFF724F81E4800884B
:1037C00018B901211D48FEF789FD1B4801880088B2
:1037D000401C194A10801A48445405E016480088D5
:1037E00040F400401449088010BD10B5044600BFE5
:1037F00040211448FDF77AFB0128F9D121460B48F6
:10380000FDF706FB40F226610848FDF7AFFB10BD4F
:1038100070B504460D46002605E014F8010BFFF7CD
:10382000E4FF701CC6B2AE42F7DB70BD004400403E
:1038300000080140000C01404E000020000800403C
:103840000005002000480040014600BF704700BF4F
:10385000494A128802F04002002AF9D0C2B2464B0F
:103860001B1D1A80704710B586B00446012144F232
:103870000400FDF72DF94FF40070ADF8140003209B
:103880008DF8160018208DF8170005A93B48FCF7A5
:1038900063FE4FF48060ADF8140004208DF817002B
:1038A00005A93648FCF758FE25208DF800000220B7
:1038B0008DF801008DF8020001208DF803006846A4
:1038C000FCF781FD01940020ADF80800ADF80A0076
:1038D000ADF80C00ADF810000C20ADF80E0001A9F9
:1038E0002548FDF79CF9012240F225512248FDF7B9
:1038F0002EFA01212048FDF71EFA06B010BD10B5C2
:1039000040F225511C48FDF707FB10B31A48FDF79C
:1039100083FAC4B21A48008800F40040C8B91848B5
:10392000008800F4804060B10A2C03D000201449C4
:10393000088020E01248008840F4004010490880C8
:1039400019E00D2C06D10E48008840F480400C4947
:10395000088010E00A480088C0F30D0009490C54A3
:1039600007480088401C0649088008460088C72888
:1039700001DD0020088010BD003801400008014032
:1039800054000020200800201FB501210420FDF76D
:103990009FF801210846FDF79BF81320ADF80C00B5
:1039A00048208DF80F0003208DF80E0003A9384839
:1039B000FCF7D2FD2020ADF80C0010208DF80F0090
:1039C00003208DF80E0003A93148FCF7C5FD002146
:1039D0000846FCF7D7FE012000908DF80600002075
:1039E0008DF804000C208DF805006846FDF7C6FF31
:1039F00006208DF8080001208DF80B0003208DF8BB
:103A000009008DF80A0002A8FCF7DDFC0121002066
:103A1000FCF7B8FE0220009001208DF8060000207F
:103A20008DF804000C208DF805006846FDF7A6FF10
:103A300007208DF8080001208DF80B0003208DF879
:103A400009008DF80A0002A8FCF7BDFC0421002043
:103A5000FCF798FE1020009001208DF80600002051
:103A60008DF804000C208DF805006846FDF786FFF0
:103A70000A208DF8080001208DF80B0002208DF837
:103A800009008DF80A0002A8FCF79DFC1FBD00008C
:103A90000008014070B504460D46FDF7A0FA352038
:103AA000FDF738FD2046FDF7DFFA29462046FDF7F1
:103AB000DEFB3520FDF72EFDFDF79DFA70BD0146BA
:103AC0000888704710B586B0044601210820FCF72D
:103AD000FFFF01218804FDF708F84448FDF75CF872
:103AE0004FF48060ADF8100003208DF8120018200C
:103AF0008DF8130004A93E48FCF72EFD4FF400603A
:103B0000ADF8100004208DF8130004A93848FCF724
:103B100023FD00940020ADF80400ADF80600ADF8D8
:103B20000800ADF80C000C20ADF80A0069462F48DB
:103B3000FDF775F801212D48FDF7FDF8012240F24F
:103B400025512A48FDF703F927208DF8140000209D
:103B50008DF8150003208DF8160001208DF8170050
:103B600005A8FCF730FC00202249088006B010BDF3
:103B700010B540F225511D48FDF7CEF910B31B4892
:103B8000FDF74AF9C4B21B48008800F40040C8B9E8
:103B90001848008800F4804060B10A2C03D000204F
:103BA0001449088020E01348008840F4004011497F
:103BB000088019E00D2C06D10E48008840F48040A2
:103BC0000C49088010E00B480088C0F30D000A493A
:103BD0000C5408480088401C0649088008460088A4
:103BE000C72801DD0020088010BD0000004800400B
:103BF000000C014056000020E808002000B585B008
:103C000001214805FCF771FF01210820FCF760FF46
:103C1000C020ADF8000003208DF802001C208DF8B4
:103C200003006946F448FCF797FCF448FDF796FC5E
:103C30000020ADF808004BF6FF70ADF80A00302008
:103C4000ADF80C004FF48060ADF80E000001ADF847
:103C50001000EB4801900121E848FDF716FD01A98D
:103C6000E648FDF794FC05B000BD70B504460D466E
:103C700000BF4FF40031E148FDF72EFE0028F8D1D7
:103C80000121DE48FDF725FD00BFDE49DB48FDF7D9
:103C900001FE0028F9D000227821D848FDF76FFDF9
:103CA00000BFD949D548FDF7F5FD0028F9D02146D8
:103CB000D248FDF75EFD00BFD349891CCF48FDF710
:103CC000E9FD0028F8D02946CC48FDF752FD00BF99
:103CD000CD49891CC948FDF7DDFD0028F8D0012138
:103CE000C648FDF702FD70BD10B504462146002010
:103CF000FFF7BBFF10BD10B5044621464020FFF77B
:103D0000B4FF10BD10B56420FFF72DFCAE20FFF707
:103D1000EBFF2020FFF7E8FF1020FFF7E5FFB020C2
:103D2000FFF7E2FFC820FFF7DFFF0020FFF7DCFF0F
:103D30001020FFF7D9FF4020FFF7D6FF8120FFF7C3
:103D4000D3FFFF20FFF7D0FFA120FFF7CDFFA62074
:103D5000FFF7CAFFA820FFF7C7FF3F20FFF7C4FF08
:103D6000A420FFF7C1FFD320FFF7BEFF0020FFF71D
:103D7000BBFFD520FFF7B8FFF020FFF7B5FFD92034
:103D8000FFF7B2FF2220FFF7AFFFDA20FFF7ACFF0B
:103D90001220FFF7A9FFDB20FFF7A6FF2020FFF787
:103DA000A3FF8D20FFF7A0FF1420FFF79DFFAF209A
:103DB000FFF79AFF10BD70B504460D4605F1B0013E
:103DC000C8B2FFF791FF102141EA1410FFF78CFFF2
:103DD00004F00F0141F00100FFF786FF70BD70B5E0
:103DE0000646002415E004F1B001C8B2FFF77CFFDD
:103DF0000020FFF779FF1020FFF776FF002504E091
:103E00003046FFF778FF681CC5B2802DF8DB601CD8
:103E1000C4B2082CE7DB70BD10B50020FFF7DFFF50
:103E200010BD10B58D20FFF75FFF1420FFF75CFF7A
:103E3000AF20FFF759FF10BD10B58D20FFF754FFDD
:103E40001020FFF751FFAE20FFF74EFF10BD2DE908
:103E5000F0470646894617469A464FF00008002468
:103E60000025BAF1010F03D0BAF1020F5ED125E0AF
:103E700020E0785D203800F0FF087E2E04DD00266B
:103E800009F1010000F0FF0949463046FFF793FFB2
:103E9000002409E008EB48015C4A02EB4101085D9F
:103EA000FFF729FF601CC4B2062CF3DBB01DC6B2BD
:103EB000681CC5B2785D0028DBD137E032E0785D60
:103EC000203800F0FF08782E04DD002609F10100FB
:103ED00000F0FF0949463046FFF76DFF002407E078
:103EE00004EB08114A4A505CFFF705FF601CC4B29E
:103EF000082CF5DB09F10100C1B23046FFF75BFF8A
:103F0000002408E004EB08110831414A505CFFF737
:103F1000F2FE601CC4B2082CF4DB06F10800C6B245
:103F2000681CC5B2785D0028C9D100BF00BFBDE8DC
:103F3000F0872DE9F04180460E46174600247D01AA
:103F400031464046FFF737FF00BF06E03149485D84
:103F5000FFF7D1FE6D1C601CC4B2102CF6DB701C88
:103F6000C1B24046FFF727FF002406E02949485D1B
:103F7000FFF7C1FE6D1C601CC4B2102CF6DBBDE85F
:103F8000F0812DE9F05F06460F4690461C46DDF8AD
:103F900028A04FF0000BE11704EB5171C910A4EBFE
:103FA000C10131B92046E11704EB5171C1F3C705D6
:103FB00006E02046E11704EB5171C910491CCDB24F
:103FC0003D4614E029463046FFF7F5FEB1460AE0CB
:103FD00059460BF1010B1AF80100FFF78CFE09F1AD
:103FE000010000F0FF09C145F2DB681CC5B2A54223
:103FF000E8DBBDE8F09F0000000C014000540040E9
:10400000801A06000100030082000700E850000843
:10401000105300085800002008B501210820FCF7C3
:1040200057FD4FF40040ADF8000010208DF803005C
:1040300003208DF8020069461348FCF78DFA4FF40F
:1040400000411148FCF735FB08BD10B54FF40041A5
:104050000D48FCF730FB6420FFF785FA4FF4004170
:104060000948FCF726FB10BD10B54FF48041064807
:10407000FCF71FFB4FF47A70FFF775FA4FF480419D
:104080000148FCF718FB10BD000C01400146212936
:104090003ED2DFE801F011131517191B1D1F212354
:1040A00025273D3D3D3D292B3D3D3D2D3D3D2F31BE
:1040B0003335373D3D393B009DA02BE09DA029E0E5
:1040C000A0A027E0A4A025E0A8A023E0AFA021E0C5
:1040D000B6A01FE0BCA01DE0C9A01BE0CBA019E06A
:1040E000CEA017E0D1A000BFD9A013E0DCA011E062
:1040F000DFA00FE0E7A00DE0EAA00BE0ECA009E0F4
:10410000EFA007E0F3A005E0F7A003E0F9A001E0CD
:10411000FBA000BF00BF70477CB50546EF208DF8BF
:10412000000001208DF80100FA480068000E8DF8AB
:104130000200F8480068000C8DF80300F54800887C
:10414000000A8DF80400F34800788DF80500072078
:104150008DF8060000208DF80700EF49088012E076
:104160000120FFF700FAEC48008800F4004050B14D
:104170000020E94908806946E84800F0CFFE04467F
:104180000CB120467CBD681E80B2051EE8D100BF80
:10419000F8E700BFE249098801F040010029F9D0A1
:1041A000DF49091D0880704710B504462012FFF74B
:1041B000F0FFE0B2FFF7EDFF10BD10B5044620465A
:1041C000FFF7E7FF10BD10B50446C4F30720FFF763
:1041D000E0FFE0B2FFF7DDFF10BD10B5044620465A
:1041E000FFF7D7FF10BD10B5CA490968080EFFF7E1
:1041F000D0FFC8480068C0F30740FFF7CAFFC548B2
:104200000088C0F30720FFF7C4FFC2490878FFF712
:10421000C0FF10BD10B5EF20FFF7BBFF0120FFF777
:10422000B8FF10BD2DE9F04781460D4616461F46E2
:10423000FFF7F0FFFFF7D7FF0120FFF7CEFF0820C1
:10424000FFF7C1FF1B20FFF7B8FF4846FFF7A1FFAC
:104250002812FFF79EFFE8B2FFF79BFF3012FFF72F
:1042600098FFF0B2FFF795FF09F1240000EB25203D
:10427000E9B2084400EB2620F1B200EB010A5046F7
:10428000FFF792FF4FF4FA60FFF746FF044664B170
:1042900094F80980E07AA17A00EB01203880607BF5
:1042A000217B00EB0120788001E04FF0FF084046C1
:1042B000BDE8F0872DE9F0410546FFF7ABFFFFF7BA
:1042C00092FF0120FFF789FF0420FFF77CFF022007
:1042D000FFF773FF2846FFF75CFFEF1D3846FFF737
:1042E00063FF4FF4FA60FFF717FF06460EB1747ACA
:1042F00000E0FF242046BDE8F08170B5FFF78AFF9B
:10430000FFF771FF0120FFF768FF0320FFF75BFF56
:104310000120FFF752FF05263046FFF745FF4FF417
:10432000FA60FFF7F9FE05460DB16C7AFBE0F9E0A3
:104330004F4B0000CAFDBEDDB0FCBDD3CAD5B4ED05
:10434000CEF30000B4ABB8D0C6F7C9CFC3BBD3D04F
:10435000CAD6D6B800000000C2BCC8EBD6B8CEC6DC
:10436000CDBCCFF1CAA7B0DC00000000D6B8CEC6E5
:10437000CDBCCFF1CCABB8C9A1A2CCABB5ADB6F832
:10438000C9FAB2BBB3C9CCD8D5F70000D6B8CEC6EF
:10439000CDBCCFF1CCABCAAAA1A2CCABBAFDB6F8CA
:1043A000C9FAB2BBB3C9CCD8D5F70000D6B8CEC6CF
:1043B000CDBCCFF1CCABC2D2B6F8C9FAB2BBB3C94F
:1043C000CCD8D5F700000000D6B8CEC6CDBCCFF112
:1043D000D5FDB3A3A3ACB5ABCCD8D5F7B5E3CCAB87
:1043E000C9D9A3A8BBF2C3E6BBFDCCABD0A1A3A99E
:1043F000B6F8C9FAB2BBB3C9CCD8D5F700000000F3
:10440000D6B8CEC6B2BBC6A5C5E40000C3BBCBD1EF
:10441000CBF7B5BDD6B8CEC600000000CCD8D5F7D6
:10442000BACFB2A2CAA7B0DC00000000B7C3CECAA0
:10443000D6B8CEC6BFE2CAB1B5D8D6B7D0F2BAC5E3
:10444000B3ACB3F6D6B8CEC6BFE2B7B6CEA70000BF
:10445000C9BEB3FDC4A3B0E5CAA7B0DC000000002C
:10446000C7E5BFD5D6B8CEC6BFE2CAA7B0DC00004C
:10447000BBBAB3E5C7F8C4DAC3BBD3D0D3D0D0A797
:10448000D4ADCABCCDBCB6F8C9FAB2BBB3C9CDBCB9
:10449000CFF10000B6C1D0B420464C41534820B300
:1044A000F6B4ED00CEB4B6A8D2E5B4EDCEF300007C
:1044B000CEDED0A7BCC4B4E6C6F7BAC50000000083
:1044C000BCC4B4E6C6F7C9E8B6A8C4DAC8DDB4ED22
:1044D000CEF30000BCC7CAC2B1BED2B3C2EBD6B8DD
:1044E000B6A8B4EDCEF30000D6B8CEC6BFE2C2FA8D
:1044F00000000000B5D8D6B7B4EDCEF30000000040
:10450000C4A3BFE9B7B5BBD8C8B7C8CFC2EBD3D037
:10451000CEF30000F80400204E000020000500202B
:1045200000440040FF24204670BD38B5FFF7E5FE8B
:104530000446002C31D10120FFF7BCFE0446D4B95B
:104540006B464FF4967200210120FFF76BFE044684
:1045500034B90123F8A203214020FFF778FC1CE0C6
:104560000123F9A219460020FFF771FC4FF4967061
:10457000FEF7F9FF11E00123F3A206210020FFF767
:1045800066FC4FF47A70FEF7EEFF2046FFF77EFDE3
:1045900005462946F0A000F0EFFB38BD1FB501210C
:1045A0000846FCF795FA01210420FCF791FA402017
:1045B000ADF8000004208DF8030003208DF8020000
:1045C0006946E748FBF7C8FF06210020FCF7DAF848
:1045D0004020029000208DF80C0008208DF80D007E
:1045E00001208DF80E0002A8FDF7C8F917208DF8FC
:1045F000040001208DF8050002208DF8060001203E
:104600008DF8070001A8FBF7DEFE1FBD10B54020A6
:10461000FDF71AFA10B10120D24908704020FDF7C9
:1046200024FA10BD70B5FFF7F5FDFFF7DCFD0120A2
:10463000FFF7D3FD0320FFF7C6FD0A20FFF7BDFDFE
:104640000E263046FFF7B0FD4FF4FA50FFF764FD39
:1046500005460DB16C7A00E0FF24204670BD70B5B0
:10466000FFF7D8FDFFF7BFFD0120FFF7B6FD0320E0
:10467000FFF7A9FD0320FFF7A0FD07263046FFF74F
:1046800093FD4FF4FA60FFF747FD05460DB16C7AD4
:1046900000E0FF24204670BD2DE9F04781460D461D
:1046A00016461F46FFF7B6FDFFF79DFD0120FFF7F9
:1046B00094FD0820FFF787FD0420FFF77EFD4846A4
:1046C000FFF767FD2812FFF764FDE8B2FFF761FD11
:1046D0003012FFF75EFDF0B2FFF75BFD09F10D0050
:1046E00000EB2520E9B2084400EB2620F1B200EBF4
:1046F000010A5046FFF758FD4FF4FA60FFF70CFD32
:10470000044664B194F80980E07AA17A00EB0120B4
:104710003880607B217B00EB0120788001E04FF046
:10472000FF084046BDE8F08770B5FFF773FDFFF75F
:104730005AFD0120FFF751FD0320FFF744FD05203E
:10474000FFF73BFD09263046FFF72EFD4FF4FA60D8
:10475000FFF7E2FC05460DB16C7A00E0FF2420462D
:1047600070BD2DE9F04106460C46FFF753FDFFF7FB
:104770003AFD0120FFF731FD0620FFF724FD06205A
:10478000FFF71BFD3046FFF704FD2012FFF701FD88
:10479000E0B2FFF7FEFC06F10D0000EB2420E1B2D1
:1047A00000EB01084046FFF7FFFC4FF4FA60FFF70B
:1047B000B3FC07460FB17D7A00E0FF252846BDE82F
:1047C000F0812DE9F04104460D46FFF723FDFFF788
:1047D0000AFD0120FFF701FD0720FFF7F4FC0C2084
:1047E000FFF7EBFC2012FFF7D4FCE0B2FFF7D1FC9F
:1047F0002812FFF7CEFCE8B2FFF7CBFC142000EB49
:104800002420E1B2084400EB2520E9B200EB0108C6
:104810004046FFF7C9FC4FF4FA60FFF77DFC0746FE
:104820000FB17E7A00E0FF263046BDE8F08170B51A
:10483000FFF7F0FCFFF7D7FC0120FFF7CEFC0320C9
:10484000FFF7C1FC0D20FFF7B8FC11263046FFF73B
:10485000ABFC4FF4FA60FFF75FFC05460DB16C7AD4
:1048600000E0FF24204670BD2DE9F04706460D46C6
:10487000FFF7D0FCFFF7B7FC0120FFF7AEFC0520E7
:10488000FFF7A1FC0E20FFF798FC3046FFF781FCF4
:104890002846FFF77EFC701900F114084046FFF728
:1048A00083FC4FF4FA60FFF737FC07460FB17C7AC0
:1048B00000E0FF241CB92CA000F05EFA07E02046BF
:1048C000FFF7E4FB8146494623A000F055FA204655
:1048D000BDE8F0872DE9F0410546FFF79BFCFFF7A7
:1048E00082FC0120FFF779FC0320FFF76CFC0F200E
:1048F000FFF763FC13273846FFF756FC4FF47A7036
:10490000FFF70AFC0446CCB3667AE07BA17B00EBA0
:1049100001202880607CA870A07C0006E17C00EB70
:104920000140217D00EB0120617D08446860E07D4D
:104930002872607E687223E0202D2D494E53455227
:1049400054204F4B2D2D0000202D2D4E4F206669F9
:104950006E6765722D2D00000D0A257300000000A2
:1049600000080140FC0400200D0AC9E8D6C3B2CEFD
:10497000CAFDB3C9B9A6A3A100000000FFE7FF2646
:10498000A6B92988A0A000F0F7F9A978A4A000F0A2
:10499000F3F9A7A0696800F0EFF9687A4FF41652AE
:1049A00000FB02F1A5A000F0E7F908E03046FFF7B0
:1049B0006DFB80464146AFF2600000F0DDF9304605
:1049C000BDE8F0812DE9F0410446FFF723FCFFF735
:1049D0000AFC0120FFF701FC0720FFF7F4FB15207C
:1049E000FFF7EBFB200EFFF7D4FBC4F30740FFF704
:1049F000D0FBC4F30720FFF7CCFBE0B2FFF7C9FB05
:104A00001D2000EB1460C4F307410844C4F30721E0
:104A10000844E1B247183846FFF7C6FB8A480460ED
:104A20004FF4FA60FFF778FB06460EB1757A00E0A6
:104A3000FF25854804601DB984A000F09DF908E0B9
:104A40002846FFF723FB80464146AFF2F40000F012
:104A500093F92846BDE8F0812DE9F04781460E46DE
:104A6000FFF7D8FBFFF7BFFB0120FFF7B6FB2420C1
:104A7000FFF7A9FB1820FFF7A0FB4846FFF789FBCB
:104A8000002407E0305DFFF784FB305D384487B2D7
:104A9000601CC4B2202CF5DB09F13D00384487B21C
:104AA0003846FFF781FB4FF4FA60FFF735FB054608
:104AB00015B195F8098001E04FF0FF084046BDE8C8
:104AC000F0872DE9F04707468846FFF7A3FBFFF77D
:104AD0008AFB0120FFF781FB0420FFF774FB1920FC
:104AE000FFF76BFB3846FFF754FB07F11E094846FA
:104AF000FFF75AFB4FF4FA60FFF70EFB064666B16C
:104B0000757A002406E004F10A00305C08F804001D
:104B1000601CC4B2202CF6DB00E0FF252846BDE86F
:104B2000F0872DE9F0410646FFF774FBFFF75BFBCA
:104B30000120FFF752FB0320FFF745FB1D20FFF785
:104B40003CFB21273846FFF72FFB4FF4FA60FFF7B5
:104B5000E3FA044634B1657AE07AA17A00EB0120E9
:104B6000308000E0FF253DB9E07AA27A00EB022117
:104B70003BA000F001F908E02846FFF787FA8046DD
:104B80004146AFF22C2000F0F7F82846BDE8F0814E
:104B900010B50446FFF73EFBFFF725FB0120FFF7AA
:104BA000F8FA0020FFF7F5FA0020FFF7F2FAC82024
:104BB000FEF7D9FC2F48008800F4004008B32E48C7
:104BC0000078EF281AD12C484078012816D12A48BD
:104BD0008079072812D12848807800062649C978AC
:104BE00000EB01402449097900EB01202249497971
:104BF0000844206000201F49088010BD00201D4986
:104C000008800120F9E700000D0AC4A3BFE9D7EE30
:104C1000B4F3D6B8CEC6C8DDC1BF3D2564000000E0
:104C20000D0AB6D4B1C8B5C8BCB63D2564000000B5
:104C30000D0AB5D8D6B73D25780000000D0AB2A8F8
:104C4000CCD8C2CA3D256400F80400200D0AC9E88A
:104C5000D6C3B5D8D6B7B3C9B9A6A3A10000000082
:104C60000D0AD3D0D0A7D6B8CEC6B8F6CAFD3D251A
:104C7000640000004E0000200005002008B501215E
:104C80001C20FBF725FF0320ADF8000010208DF855
:104C9000030003208DF8020069460248FBF75CFC24
:104CA00008BD0000000C014030B589B005460C4637
:104CB00001210220FBF719FF01210C20FBF708FF5F
:104CC00001210846FBF704FF0220ADF82000182060
:104CD0008DF8230003208DF8220008A92348FBF754
:104CE0003BFCADF80850ADF804400020ADF80600DC
:104CF000ADF80A0001A91E48FCF794FF6020ADF84A
:104D000010000020ADF818000120ADF8120004A931
:104D10001748FDF79EF808211548FDF72EFC0121E4
:104D20001348FDF7DBFA09B030BD10B541F294111C
:104D30000F48FDF771FD4FF41670FEF714FC41F6B5
:104D40001A510B48FDF768FD4FF44870FEF70BFC55
:104D500040F2DC50FEF707FC41F294110448FDF7E5
:104D60005BFD4FF41670FEF7FEFB10BD000C01401A
:104D700000040040704700000FB4044910B503AAB6
:104D8000029800F051F910BC5DF814FB50000020AF
:104D90002DE9F0410E460446002020622046E168DD
:104DA000884730B3252805D0D4E901219047206AEF
:104DB000401CF2E7E168204600278847050018D02C
:104DC000A5F14100192802D820354FF4006732467A
:104DD000294620462760FBF7E3F940B1012804D0BB
:104DE000F61D26F007060836D8E7361DD6E7284612
:104DF000DAE7206ABDE8F08170B50C460546012A65
:104E000005D02878800600D5EA69002302E0012356
:104E100005E05B1C934202D2E05C0028F9D1A8694E
:104E2000E618C01AA861286A184428622846AFF319
:104E3000008004E0D5E9012114F8010B9047B44249
:104E4000F8D32846AFF3008070BD00002DE9F04193
:104E50000646002410687529314616A510D0AFF318
:104E60000080002802DA404213A507E031688A0773
:104E700001D512A502E0490704D511A5012401E0DE
:104E8000AFF3008000210A2206F1240709E0B0FBFD
:104E9000F2FCB0FBF2F302FB1C00303078541846F1
:104EA000491C0028F3D123462A463046BDE8F0418C
:104EB00000F04AB8000000002D0000002B000000A8
:104EC0002000000070B504460D4621461068AFF37F
:104ED00000802188090502D50F4A7A4402E00E4A73
:104EE0007A440E32002104F1240305E000F00F069D
:104EF0000009965D5E54491C0028F7D120780023F4
:104F0000000704D5702D02D009B1022311322046CA
:104F1000BDE8704000F018B8220A000030B5054620
:104F20000B462A4613F8014B12F8010B08B1A042B8
:104F3000F8D01CB1002802D06D1CF1E7284630BD26
:104F400070477047704770472DE9F0470D46994606
:104F50009246044600F124080168880604D5E069F9
:104F600021F01001216000E00120A84201DD471B73
:104F700000E00027A1697A1902EB0900081AA06174
:104F80002078C00602D42046AFF30080002608E057
:104F9000D4E901211AF806009047206A401C761CCB
:104FA00020624E45F4DB2078C0060AD52046AFF3D8
:104FB000008006E0D4E9012130209047206A401C9F
:104FC0002062381EA7F10107F4DC07E0D4E90121D3
:104FD00018F805009047206A401C2062281EA5F1A1
:104FE0000105F3DC2046AFF300802078000602D5EF
:104FF0000220BDE8F0870120FBE710B5436913B13B
:10500000AFF3008001E0FFF7F7FE012010BD12783A
:1050100000F124010A7000224A700122EDE71168B4
:105020004FF0FF32E9E70000074B70B50D467B44B7
:1050300000F011F80446284600F020F810B14FF0B7
:10504000FF3070BD204670BD1DE8FFFF01694A1C9E
:1050500002610878704700B58FB0CDE901310021B9
:10506000059105497944CDE9031011466846FFF7DB
:105070008FFE0FB000BD0000E5FFFFFF007B00F0DA
:1050800080007047754600F02BF8AE460500694673
:10509000534620F00700854618B020B5FDF70AFCFE
:1050A000BDE820404FF000064FF000074FF0000829
:1050B0004FF0000B21F00701AC46ACE8C009ACE8AA
:1050C000C009ACE8C009ACE8C0098D46704710B50E
:1050D0000446AFF300802046BDE81040FBF778B8E7
:1050E00000487047B00900200000000000000000E8
:1050F000002F000000000700070000147F147F1439
:1051000000242A7F2A1200626408132300364955BE
:10511000225000000503000000001C224100000096
:1051200041221C000014083E08140008083E08082C
:10513000000000A060000008080808080000606087
:105140000000002010080402003E5149453E0000C6
:10515000427F4000004261514946002141454B31A8
:10516000001814127F10002745454539003C4A4974
:1051700049300001710905030036494949360006E6
:105180004949291E0000363600000000563600004E
:1051900000081422410000141414141400004122C9
:1051A000140800020151090600324959513E007CA1
:1051B0001211127C007F49494936003E414141228B
:1051C000007F4141221C007F49494941007F090974
:1051D0000901003E4149497A007F0808087F000024
:1051E000417F4100002040413F01007F08142241DF
:1051F000007F40404040007F020C027F007F040897
:10520000107F003E4141413E007F09090906003EF2
:105210004151215E007F091929460046494949311B
:105220000001017F0101003F4040403F001F20403E
:10523000201F003F4038403F0063140814630007FC
:105240000870080700615149454300007F41410053
:1052500000552A552A55000041417F0000040201F3
:1052600002040040404040400000010204000020D1
:1052700054545478007F484444380038444444200F
:1052800000384444487F00385454541800087E09BC
:1052900001020018A4A4A47C007F08040478000084
:1052A000447D4000004080847D00007F1028440041
:1052B0000000417F4000007C04180478007C080452
:1052C000047800384444443800FC2424241800188E
:1052D000242418FC007C080404080048545454207A
:1052E00000043F444020003C4040207C001C204003
:1052F000201C003C4030403C004428102844001C46
:10530000A0A0A07C004464544C441414141414143D
:10531000000000000000000000000000000000008D
:10532000000000F800000000000000333000000022
:1053300000100C06100C0600000000000000000029
:1053400040C07840C0784000043F04043F0404009B
:10535000007088FC08300000001820FF211E0000AB
:10536000F008F000E018000000211C031E211E00C0
:1053700000F00888700000001E2123241927211046
:1053800010160E00000000000000000000000000E9
:10539000000000E018040200000000071820400090
:1053A00000020418E0000000004020180700000080
:1053B000404080F0804040000202010F01020200E4
:1053C000000000F0000000000101011F01010100C8
:1053D000000000000000000080B07000000000002D
:1053E00000000000000000000001010101010101B6
:1053F000000000000000000000303000000000004D
:105400000000000080601804006018060100000021
:1054100000E010080810E000000F102020100F001E
:10542000001010F8000000000020203F20200000A5
:1054300000700808088870000030282422213000FD
:1054400000300888884830000018202020110E0005
:105450000000C02010F8000000070424243F2400AE
:1054600000F80888880808000019212020110E0083
:1054700000E0108888180000000F112020110E0095
:1054800000380808C83808000000003F000000008D
:105490000070880808887000001C222121221C004E
:1054A00000E010080810E0000000312222110F0077
:1054B000000000C0C000000000000030300000000C
:1054C000000000800000000000008060000000007C
:1054D0000000804020100800000102040810200095
:1054E00040404040404040000404040404040400E0
:1054F0000008102040800000002010080402010075
:10550000007048080808F000000000303601000074
:10551000C030C828E810E0000718272423140B0027
:105520000000C038E0000000203C230202273820A1
:1055300008F8888888700000203F202020110E0085
:10554000C03008080808380007182020201008007C
:1055500008F808080810E000203F202020100F0065
:1055600008F88888E8081000203F20202320180031
:1055700008F88888E8081000203F20000300000099
:10558000C03008080838000007182020221E02003A
:1055900008F808000008F808203F210101213F20F9
:1055A000000808F8080800000020203F2020000024
:1055B00000000808F8080800C08080807F00000014
:1055C00008F888C028180800203F2001263820004D
:1055D00008F8080000000000203F202020203000B4
:1055E00008F8F800F8F80800203F003F003F2000CE
:1055F00008F830C00008F808203F200007183F00D6
:10560000E01008080810E0000F10202020100F0004
:1056100008F808080808F000203F210101010000F7
:10562000E01008080810E0000F18242438504F003C
:1056300008F8888888887000203F2000030C3020FC
:1056400000708808080838000038202121221C003A
:10565000180808F8080818000000203F2000000083
:1056600008F808000008F808001F202020201F006C
:105670000878880000C83808000007380E010000CC
:10568000F80800F80008F800033C0700073C030096
:10569000081868808068180820302C03032C3020FC
:1056A0000838C800C83808000000203F200000006B
:1056B00010080808C83808002038262120201800C3
:1056C000000000FE020202000000007F4040400097
:1056D000000C30C000000000000000010638C000CF
:1056E00000020202FE000000004040407F00000077
:1056F000000004020202040000000000000000009C
:105700000000000000000000808080808080808099
:105710000002020400000000000000000000000081
:1057200000008080808000000019242222223F2077
:1057300008F8008080000000003F112020110E00BA
:105740000000008080800000000E11202020110049
:10575000000000808088F800000E112020103F20FB
:105760000000808080800000001F2222222213007F
:10577000008080F0888888180020203F20200000CA
:105780000000808080808000006B9494949360007F
:1057900008F8008080800000203F210000203F208A
:1057A00000809898000000000020203F202000008A
:1057B000000000809898000000C08080807F00007A
:1057C00008F8000080808000203F24022D30200057
:1057D000000808F8000000000020203F2020000002
:1057E0008080808080808000203F20003F20003F1C
:1057F0008080008080800000203F210000203F202A
:105800000000808080800000001F202020201F00DA
:10581000808000808000000080FFA12020110E0009
:105820000000008080808000000E112020A0FF80FA
:10583000808080008080800020203F2120000100A7
:1058400000008080808080000033242424241900FC
:10585000008080E0808000000000001F2020000009
:105860008080000000808000001F202020103F204A
:10587000808080000080808000010E3008060100DA
:1058800080800080008080800F300C030C300F007F
:1058900000808000808080000020312E0E312000AA
:1058A000808080000080808080818E7018060100DA
:1058B00000808080808080000021302C22213000F8
:1058C00000000000807C020200000000003F404019
:1058D00000000000FF00000000000000FF000000CA
:1058E0000002027C800000000040403F00000000F9
:1058F0000006010102020404000000000000000094
:1059000030313233343536373839414243444546F5
:1059100040305800303132333435363738396162EF
:105920006364656640307800485900080000002034
:105930000005000028010008105B00080005002099
:10594000100B0000840100081184A24A04680901B8
:10595000020304060708090C691025020406080260
:105960001B7B0212011C04F454012AFF051AF46285
:105970001010044435057585858FB585E5051566D8
:105980000C1016203C1CFFFFB0B424243F3FE4E47D
:10599000242420020203FFFF280A01051D59C1FF2C
:1059A0007F010151500CF8F8484C4F4B4A4848F8D9
:1059B000F84CFFFF44011929112C20242438100928
:1059C000243010FFFF10F0F01010081C1F0B0C0DFE
:1059D0004F6E341C0F23607F3F180880C060F8FFB3
:1059E0000702351DE0703C1CBF21200D7F7F04069F
:1059F000033F7F4040407878100A03050911FF11EA
:105A00008905C312E012F0496221073D4428FF11C5
:105A1000AA44700B830138448292927401831E7CE5
:105A200044C7017D01990519C1419A01028139FBE1
:105A3000013C69419949FA0101A12A4001212A6DDD
:105A400001212A6001791501642ADB010915072A61
:105A5000DA01212AD801212AC0010915072A80016B
:105A600001352A06010918071CE66620076A861513
:105A70007A861C2A8601180A80808686068686C059
:105A8000C00C0E1C0606D030764D2907013113607C
:105A90001C12FE1301021009C41820029E63B20EEC
:105AA0001DFF8181FFF24440300F12FF180923EAE5
:105AB000AABFAAEA033F0B012DBC80808008011514
:105AC000240E0C082A01013149041D8180808102C5
:105AD0001901B91706110101090C0E0A14C00121A0
